{
  "contractName": "RPSLS",
  "abi": [
    {
      "constant": true,
      "inputs": [],
      "name": "cheatsPlayer1",
      "outputs": [
        {
          "name": "",
          "type": "bool"
        }
      ],
      "payable": false,
      "stateMutability": "view",
      "type": "function"
    },
    {
      "constant": true,
      "inputs": [],
      "name": "player1MoveHash",
      "outputs": [
        {
          "name": "",
          "type": "bytes32"
        }
      ],
      "payable": false,
      "stateMutability": "view",
      "type": "function"
    },
    {
      "constant": true,
      "inputs": [],
      "name": "player2",
      "outputs": [
        {
          "name": "",
          "type": "address"
        }
      ],
      "payable": false,
      "stateMutability": "view",
      "type": "function"
    },
    {
      "constant": true,
      "inputs": [],
      "name": "cheatsPlayer2",
      "outputs": [
        {
          "name": "",
          "type": "bool"
        }
      ],
      "payable": false,
      "stateMutability": "view",
      "type": "function"
    },
    {
      "constant": true,
      "inputs": [],
      "name": "player1MoveClear",
      "outputs": [
        {
          "name": "",
          "type": "bytes32"
        }
      ],
      "payable": false,
      "stateMutability": "view",
      "type": "function"
    },
    {
      "constant": true,
      "inputs": [],
      "name": "player1",
      "outputs": [
        {
          "name": "",
          "type": "address"
        }
      ],
      "payable": false,
      "stateMutability": "view",
      "type": "function"
    },
    {
      "constant": true,
      "inputs": [],
      "name": "player2MoveHash",
      "outputs": [
        {
          "name": "",
          "type": "bytes32"
        }
      ],
      "payable": false,
      "stateMutability": "view",
      "type": "function"
    },
    {
      "constant": true,
      "inputs": [],
      "name": "player2MoveClear",
      "outputs": [
        {
          "name": "",
          "type": "bytes32"
        }
      ],
      "payable": false,
      "stateMutability": "view",
      "type": "function"
    },
    {
      "anonymous": false,
      "inputs": [],
      "name": "ready",
      "type": "event"
    },
    {
      "anonymous": false,
      "inputs": [],
      "name": "checkMove",
      "type": "event"
    },
    {
      "anonymous": false,
      "inputs": [
        {
          "indexed": false,
          "name": "winner",
          "type": "address"
        }
      ],
      "name": "unrolled",
      "type": "event"
    },
    {
      "constant": false,
      "inputs": [],
      "name": "resetGame",
      "outputs": [],
      "payable": false,
      "stateMutability": "nonpayable",
      "type": "function"
    },
    {
      "constant": true,
      "inputs": [],
      "name": "isRegistered",
      "outputs": [
        {
          "name": "",
          "type": "bool"
        }
      ],
      "payable": false,
      "stateMutability": "view",
      "type": "function"
    },
    {
      "constant": true,
      "inputs": [],
      "name": "canRegister",
      "outputs": [
        {
          "name": "",
          "type": "bool"
        }
      ],
      "payable": false,
      "stateMutability": "view",
      "type": "function"
    },
    {
      "constant": false,
      "inputs": [],
      "name": "register",
      "outputs": [
        {
          "name": "",
          "type": "bool"
        }
      ],
      "payable": true,
      "stateMutability": "payable",
      "type": "function"
    },
    {
      "constant": true,
      "inputs": [],
      "name": "playersReady",
      "outputs": [
        {
          "name": "",
          "type": "bool"
        }
      ],
      "payable": false,
      "stateMutability": "view",
      "type": "function"
    },
    {
      "constant": true,
      "inputs": [],
      "name": "playersReady_canMakeMove",
      "outputs": [
        {
          "name": "",
          "type": "bool"
        }
      ],
      "payable": false,
      "stateMutability": "view",
      "type": "function"
    },
    {
      "constant": false,
      "inputs": [
        {
          "name": "movePassword",
          "type": "string"
        }
      ],
      "name": "makeMove",
      "outputs": [],
      "payable": false,
      "stateMutability": "nonpayable",
      "type": "function"
    },
    {
      "constant": true,
      "inputs": [],
      "name": "getWinner",
      "outputs": [
        {
          "name": "",
          "type": "int256"
        }
      ],
      "payable": false,
      "stateMutability": "view",
      "type": "function"
    },
    {
      "constant": true,
      "inputs": [],
      "name": "moveFinished",
      "outputs": [
        {
          "name": "",
          "type": "bool"
        }
      ],
      "payable": false,
      "stateMutability": "view",
      "type": "function"
    },
    {
      "constant": false,
      "inputs": [
        {
          "name": "movePassword",
          "type": "string"
        },
        {
          "name": "move",
          "type": "string"
        }
      ],
      "name": "isCheating",
      "outputs": [],
      "payable": false,
      "stateMutability": "nonpayable",
      "type": "function"
    },
    {
      "constant": true,
      "inputs": [],
      "name": "isUnrollReady",
      "outputs": [
        {
          "name": "",
          "type": "bool"
        }
      ],
      "payable": false,
      "stateMutability": "view",
      "type": "function"
    },
    {
      "constant": false,
      "inputs": [],
      "name": "unroll",
      "outputs": [],
      "payable": false,
      "stateMutability": "nonpayable",
      "type": "function"
    }
  ],
  "bytecode": "0x60806040526001600660006101000a81548160ff0219169083151502179055506001600660016101000a81548160ff02191690831515021790555060405180807f726f636b000000000000000000000000000000000000000000000000000000008152506004019050604051809103902060079060001916905560405180807f70617065720000000000000000000000000000000000000000000000000000008152506005019050604051809103902060089060001916905560405180807f73636973736f72730000000000000000000000000000000000000000000000008152506008019050604051809103902060099060001916905560405180807f6c697a617264000000000000000000000000000000000000000000000000000081525060060190506040518091039020600a9060001916905560405180807f73706f636b00000000000000000000000000000000000000000000000000000081525060050190506040518091039020600b9060001916905534801561018157600080fd5b506118d1806101916000396000f300608060405260043610610112576000357c0100000000000000000000000000000000000000000000000000000000900463ffffffff1680631aa3a0081461011757806322366844146101395780632316c967146101685780632f71f7561461019757806338b9dab1146101c65780634e505506146101f5578063589384b91461022857806359a5f12d146102575780635c7d8ce9146102ae5780637b4c87e1146102c55780638e7ea5b2146102f45780639198eb7e1461031f578063a3c3e03c14610388578063bb472219146103b7578063c029acfd146103ce578063d2aac91214610401578063d30895e414610430578063d5535aa014610487578063e27587f9146104ba578063ea802754146104ed575b600080fd5b61011f61059c565b604051808215151515815260200191505060405180910390f35b34801561014557600080fd5b5061014e610711565b604051808215151515815260200191505060405180910390f35b34801561017457600080fd5b5061017d6107d1565b604051808215151515815260200191505060405180910390f35b3480156101a357600080fd5b506101ac6107fb565b604051808215151515815260200191505060405180910390f35b3480156101d257600080fd5b506101db61082c565b604051808215151515815260200191505060405180910390f35b34801561020157600080fd5b5061020a61083f565b60405180826000191660001916815260200191505060405180910390f35b34801561023457600080fd5b5061023d610845565b604051808215151515815260200191505060405180910390f35b34801561026357600080fd5b5061026c6108eb565b604051808273ffffffffffffffffffffffffffffffffffffffff1673ffffffffffffffffffffffffffffffffffffffff16815260200191505060405180910390f35b3480156102ba57600080fd5b506102c3610911565b005b3480156102d157600080fd5b506102da610ca7565b604051808215151515815260200191505060405180910390f35b34801561030057600080fd5b50610309610cba565b6040518082815260200191505060405180910390f35b34801561032b57600080fd5b50610386600480360381019080803590602001908201803590602001908080601f0160208091040260200160405190810160405280939291908181526020018383808284378201915050505050509192919290505050610e65565b005b34801561039457600080fd5b5061039d611178565b604051808215151515815260200191505060405180910390f35b3480156103c357600080fd5b506103cc611210565b005b3480156103da57600080fd5b506103e3611307565b60405180826000191660001916815260200191505060405180910390f35b34801561040d57600080fd5b5061041661130d565b604051808215151515815260200191505060405180910390f35b34801561043c57600080fd5b5061044561140c565b604051808273ffffffffffffffffffffffffffffffffffffffff1673ffffffffffffffffffffffffffffffffffffffff16815260200191505060405180910390f35b34801561049357600080fd5b5061049c611431565b60405180826000191660001916815260200191505060405180910390f35b3480156104c657600080fd5b506104cf611437565b60405180826000191660001916815260200191505060405180910390f35b3480156104f957600080fd5b5061059a600480360381019080803590602001908201803590602001908080601f0160208091040260200160405190810160405280939291908181526020018383808284378201915050505050509192919290803590602001908201803590602001908080601f016020809104026020016040519081016040528093929190818152602001838380828437820191505050505050919291929050505061143d565b005b600066038d7ea4c68000803410156105b357600080fd5b600015156105bf610711565b151514156107085760008060009054906101000a900473ffffffffffffffffffffffffffffffffffffffff1673ffffffffffffffffffffffffffffffffffffffff16141561065057336000806101000a81548173ffffffffffffffffffffffffffffffffffffffff021916908373ffffffffffffffffffffffffffffffffffffffff1602179055506001915061070d565b6000600160009054906101000a900473ffffffffffffffffffffffffffffffffffffffff1673ffffffffffffffffffffffffffffffffffffffff1614156107075733600160006101000a81548173ffffffffffffffffffffffffffffffffffffffff021916908373ffffffffffffffffffffffffffffffffffffffff1602179055507f6defbf80a30025d596790a4baf4e6298941cebee48baa972efb21b3fd63416ea60405160405180910390a16001915061070d565b5b600091505b5090565b60003373ffffffffffffffffffffffffffffffffffffffff166000809054906101000a900473ffffffffffffffffffffffffffffffffffffffff1673ffffffffffffffffffffffffffffffffffffffff1614806107bb57503373ffffffffffffffffffffffffffffffffffffffff16600160009054906101000a900473ffffffffffffffffffffffffffffffffffffffff1673ffffffffffffffffffffffffffffffffffffffff16145b156107c957600190506107ce565b600090505b90565b60008060010260025460001916141580156107f6575060006001026003546000191614155b905090565b6000600660009054906101000a900460ff161580156108275750600660019054906101000a900460ff16155b905090565b600660009054906101000a900460ff1681565b60025481565b6000806000809054906101000a900473ffffffffffffffffffffffffffffffffffffffff1673ffffffffffffffffffffffffffffffffffffffff1614806108d557506000600160009054906101000a900473ffffffffffffffffffffffffffffffffffffffff1673ffffffffffffffffffffffffffffffffffffffff161480156108d457506108d2610711565b155b5b156108e357600190506108e8565b600090505b90565b600160009054906101000a900473ffffffffffffffffffffffffffffffffffffffff1681565b600061091b610cba565b90506001811415610a2e576000809054906101000a900473ffffffffffffffffffffffffffffffffffffffff1673ffffffffffffffffffffffffffffffffffffffff166108fc3073ffffffffffffffffffffffffffffffffffffffff16319081150290604051600060405180830381858888f193505050501580156109a4573d6000803e3d6000fd5b507f521106cf2e28fa54ad7abac5de58fa3d452f209ffccd43eef53921bfde6e3f456000809054906101000a900473ffffffffffffffffffffffffffffffffffffffff16604051808273ffffffffffffffffffffffffffffffffffffffff1673ffffffffffffffffffffffffffffffffffffffff16815260200191505060405180910390a1610c9c565b6002811415610b4157600160009054906101000a900473ffffffffffffffffffffffffffffffffffffffff1673ffffffffffffffffffffffffffffffffffffffff166108fc3073ffffffffffffffffffffffffffffffffffffffff16319081150290604051600060405180830381858888f19350505050158015610ab6573d6000803e3d6000fd5b507f521106cf2e28fa54ad7abac5de58fa3d452f209ffccd43eef53921bfde6e3f45600160009054906101000a900473ffffffffffffffffffffffffffffffffffffffff16604051808273ffffffffffffffffffffffffffffffffffffffff1673ffffffffffffffffffffffffffffffffffffffff16815260200191505060405180910390a1610c9b565b6000809054906101000a900473ffffffffffffffffffffffffffffffffffffffff1673ffffffffffffffffffffffffffffffffffffffff166108fc60023073ffffffffffffffffffffffffffffffffffffffff1631811515610b9f57fe5b049081150290604051600060405180830381858888f19350505050158015610bcb573d6000803e3d6000fd5b50600160009054906101000a900473ffffffffffffffffffffffffffffffffffffffff1673ffffffffffffffffffffffffffffffffffffffff166108fc3073ffffffffffffffffffffffffffffffffffffffff16319081150290604051600060405180830381858888f19350505050158015610c4b573d6000803e3d6000fd5b507f521106cf2e28fa54ad7abac5de58fa3d452f209ffccd43eef53921bfde6e3f456000604051808273ffffffffffffffffffffffffffffffffffffffff16815260200191505060405180910390a15b5b610ca4611210565b50565b600660019054906101000a900460ff1681565b6000610cc46107fb565b15610e61576007546000191660045460001916148015610d05575060095460001916600554600019161480610d045750600a546000191660055460001916145b5b15610d135760019050610e62565b6008546000191660045460001916148015610d4f575060075460001916600554600019161480610d4e5750600b546000191660055460001916145b5b15610d5d5760019050610e62565b6009546000191660045460001916148015610d99575060085460001916600554600019161480610d985750600a546000191660055460001916145b5b15610da75760019050610e62565b600b546000191660045460001916148015610de3575060095460001916600554600019161480610de257506007546000191660055460001916145b5b15610df15760019050610e62565b600a546000191660045460001916148015610e2d575060085460001916600554600019161480610e2c5750600b546000191660055460001916145b5b15610e3b5760019050610e62565b60055460001916600454600019161415610e585760009050610e62565b60029050610e62565b5b90565b610e6d611178565b15611175576000809054906101000a900473ffffffffffffffffffffffffffffffffffffffff1673ffffffffffffffffffffffffffffffffffffffff163373ffffffffffffffffffffffffffffffffffffffff16148015610ed75750600060010260025460001916145b15610ff457806040516020018082805190602001908083835b602083101515610f155780518252602082019150602081019050602083039250610ef0565b6001836020036101000a0380198251168184511680821785525050505050509050019150506040516020818303038152906040526040518082805190602001908083835b602083101515610f7e5780518252602082019150602081019050602083039250610f59565b6001836020036101000a038019825116818451168082178552505050505050905001915050604051809103902060028160001916905550610fbd6107d1565b15610fef577fccc378cf523594c6e9e915abc26567197c8a9b8f796beca0e1661423d32a372560405160405180910390a15b611174565b600160009054906101000a900473ffffffffffffffffffffffffffffffffffffffff1673ffffffffffffffffffffffffffffffffffffffff163373ffffffffffffffffffffffffffffffffffffffff1614801561105a5750600060010260035460001916145b1561117357806040516020018082805190602001908083835b6020831015156110985780518252602082019150602081019050602083039250611073565b6001836020036101000a0380198251168184511680821785525050505050509050019150506040516020818303038152906040526040518082805190602001908083835b60208310151561110157805182526020820191506020810190506020830392506110dc565b6001836020036101000a0380198251168184511680821785525050505050509050019150506040518091039020600381600019169055506111406107d1565b15611172577fccc378cf523594c6e9e915abc26567197c8a9b8f796beca0e1661423d32a372560405160405180910390a15b5b5b5b50565b6000806000809054906101000a900473ffffffffffffffffffffffffffffffffffffffff1673ffffffffffffffffffffffffffffffffffffffff16141580156111fa57506000600160009054906101000a900473ffffffffffffffffffffffffffffffffffffffff1673ffffffffffffffffffffffffffffffffffffffff1614155b15611208576001905061120d565b600090505b90565b60008060006101000a81548173ffffffffffffffffffffffffffffffffffffffff021916908373ffffffffffffffffffffffffffffffffffffffff1602179055506000600160006101000a81548173ffffffffffffffffffffffffffffffffffffffff021916908373ffffffffffffffffffffffffffffffffffffffff1602179055506000600102600281600019169055506000600102600381600019169055506000600102600481600019169055506000600102600581600019169055506001600660006101000a81548160ff0219169083151502179055506001600660016101000a81548160ff021916908315150217905550565b60045481565b6000611317611178565b15611404576000809054906101000a900473ffffffffffffffffffffffffffffffffffffffff1673ffffffffffffffffffffffffffffffffffffffff163373ffffffffffffffffffffffffffffffffffffffff161480156113815750600060010260025460001916145b1561138f5760019050611409565b600160009054906101000a900473ffffffffffffffffffffffffffffffffffffffff1673ffffffffffffffffffffffffffffffffffffffff163373ffffffffffffffffffffffffffffffffffffffff161480156113f55750600060010260035460001916145b156114035760019050611409565b5b600090505b90565b6000809054906101000a900473ffffffffffffffffffffffffffffffffffffffff1681565b60035481565b60055481565b6000809054906101000a900473ffffffffffffffffffffffffffffffffffffffff1673ffffffffffffffffffffffffffffffffffffffff163373ffffffffffffffffffffffffffffffffffffffff1614156116655760025460001916826040516020018082805190602001908083835b6020831015156114d257805182526020820191506020810190506020830392506114ad565b6001836020036101000a0380198251168184511680821785525050505050509050019150506040516020818303038152906040526040518082805190602001908083835b60208310151561153b5780518252602082019150602081019050602083039250611516565b6001836020036101000a0380198251168184511680821785525050505050509050019150506040518091039020600019161415600660006101000a81548160ff021916908315150217905550806040516020018082805190602001908083835b6020831015156115c0578051825260208201915060208101905060208303925061159b565b6001836020036101000a0380198251168184511680821785525050505050509050019150506040516020818303038152906040526040518082805190602001908083835b6020831015156116295780518252602082019150602081019050602083039250611604565b6001836020036101000a03801982511681845116808217855250505050505090500191505060405180910390206004816000191690555061188b565b600160009054906101000a900473ffffffffffffffffffffffffffffffffffffffff1673ffffffffffffffffffffffffffffffffffffffff163373ffffffffffffffffffffffffffffffffffffffff16141561188a5760035460001916826040516020018082805190602001908083835b6020831015156116fb57805182526020820191506020810190506020830392506116d6565b6001836020036101000a0380198251168184511680821785525050505050509050019150506040516020818303038152906040526040518082805190602001908083835b602083101515611764578051825260208201915060208101905060208303925061173f565b6001836020036101000a0380198251168184511680821785525050505050509050019150506040518091039020600019161415600660016101000a81548160ff021916908315150217905550806040516020018082805190602001908083835b6020831015156117e957805182526020820191506020810190506020830392506117c4565b6001836020036101000a0380198251168184511680821785525050505050509050019150506040516020818303038152906040526040518082805190602001908083835b602083101515611852578051825260208201915060208101905060208303925061182d565b6001836020036101000a0380198251168184511680821785525050505050509050019150506040518091039020600581600019169055505b5b6118936107fb565b156118a1576118a0610911565b5b50505600a165627a7a7230582061a05aeed762bfe711dd346785bbbe210d9f992f9bebabf8630cb92288aba7b90029",
  "source": "pragma solidity ^0.4.24;\n\ncontract RPSLS{\n\n    address public player1;\n    address public player2;\n    \n    // Players moves hashed with a salt\n    bytes32 public player1MoveHash;\n    bytes32 public player2MoveHash;\n\n    // Hashed moves with not salt\n    bytes32 public player1MoveClear;\n    bytes32 public player2MoveClear;\n\n    bool public cheatsPlayer1 = true;\n    bool public cheatsPlayer2 = true;\n\n    function resetGame() public{\n        player1 = 0;\n        player2 = 0;\n        player1MoveHash = bytes32(0);\n        player2MoveHash = bytes32(0);\n        player1MoveClear = bytes32(0);\n        player2MoveClear = bytes32(0);\n        cheatsPlayer1 = true;\n        cheatsPlayer2 = true;\n    }\n\n    event ready(); //Both players are registered thus to make their move\n    event checkMove(); //Both players made their move and are prompted for their password\n    event unrolled(address winner); //Both players move check out, so we can get the outcome\n\n    // All the possible hashed moves\n    bytes32 rock = keccak256(\"rock\");\n    bytes32 paper = keccak256(\"paper\");\n    bytes32 scissors = keccak256(\"scissors\");\n    bytes32 lizard = keccak256(\"lizard\");\n    bytes32 spock = keccak256(\"spock\");\n\n\n    // Check if a player is already registered\n    function isRegistered() public constant returns (bool){\n        if ((player1 == msg.sender) || (player2 == msg.sender)) return true;\n        return false;\n    }\n\n    // Check if a player can register (e.g player1!=0 or player2!=0 and msg.sender is not registered)\n    function canRegister() public constant returns (bool){\n        if ((player1 == 0) || (player2 == 0) && !isRegistered()) return true;\n        return false;\n    }\n\n    // Check amount sent\n    modifier checkAmount(uint amount){\n        if (msg.value < amount)\n            revert();\n        else\n            _;\n    }\n\n    // Register a player if he is not registred yet and paid enough\n    function register() checkAmount(1000000000000000) public payable returns (bool){\n        if  (isRegistered()==false){\n            if (player1 == 0) {\n                player1 = msg.sender;\n                return true;\n            }\n            else if (player2 == 0) {\n                player2 = msg.sender;\n                emit ready();\n                return true;\n            }\n        }\n        return false;\n    }\n\n    // Both players are registered\n    function playersReady() public constant returns (bool){\n        if ((player1 != 0) && (player2 != 0)) return true;\n        return false;\n    }\n\n    // Check if player can make a move (e.g both players are registered and sender did not play)\n    function playersReady_canMakeMove() public constant returns (bool){\n        if (playersReady()) {\n            if ((msg.sender == player1) && (player1MoveHash == 0)) return true;\n            else if ((msg.sender == player2) && (player2MoveHash == 0)) return true;\n        }\n        return false;\n    }\n\n    // Stores and hashes the concatenation of the move and the password\n    function makeMove(string movePassword) public {\n        if (playersReady()) {\n            if ((msg.sender == player1) && (player1MoveHash == 0)){\n                player1MoveHash = keccak256(abi.encodePacked(movePassword));\n                if (moveFinished()) emit checkMove();\n            }\n            else if ((msg.sender == player2) && (player2MoveHash == 0)) {\n                player2MoveHash = keccak256(abi.encodePacked(movePassword));\n                if (moveFinished()) emit checkMove();\n            }\n        }\n    }\n\n    function getWinner() public constant returns (int) {\n        if (isUnrollReady()) {\n            // Player 1 rock wins\n            if (player1MoveClear==rock && (player2MoveClear==scissors || player2MoveClear==lizard)) {\n                return 1;\n            }\n            // Player 1 paper wins\n            else if (player1MoveClear==paper && (player2MoveClear==rock || player2MoveClear==spock)) {\n                return 1;\n            }\n            // Player 1 scissors wins\n            else if (player1MoveClear==scissors && (player2MoveClear==paper || player2MoveClear==lizard)) {\n                return 1;\n            }\n            // Player 1 spock wins\n            else if (player1MoveClear==spock && (player2MoveClear==scissors || player2MoveClear==rock)) {\n                return 1;\n            }\n            // Player 1 lizard wins\n            else if (player1MoveClear==lizard && (player2MoveClear==paper || player2MoveClear==spock)) {\n                return 1;\n            }\n            // Draw\n            else if (player1MoveClear==player2MoveClear){\n                return 0;\n            }\n            // Player 2 wins\n            else return 2;\n        }\n    }\n\n    // Both player made their move\n    function moveFinished() public constant returns (bool){\n        return ((player1MoveHash != 0) && (player2MoveHash != 0));\n    }\n\n    // Check if a player is cheating (called after both players made their move)\n    function isCheating(string movePassword, string move) public {\n        if (msg.sender == player1) {\n            cheatsPlayer1 = !(keccak256(abi.encodePacked(movePassword)) == player1MoveHash);\n            player1MoveClear = keccak256(abi.encodePacked(move));\n        }\n        else if (msg.sender == player2) {\n            cheatsPlayer2 = !(keccak256(abi.encodePacked(movePassword)) == player2MoveHash);\n            player2MoveClear = keccak256(abi.encodePacked(move));\n        }\n        if (isUnrollReady()) unroll();\n    }\n\n    // Both player revealed their move and did not cheat\n    function isUnrollReady() public constant returns (bool){\n        return (!cheatsPlayer1 && !cheatsPlayer2);\n    }\n\n    function unroll() public {\n        int winner = getWinner();\n        if (winner==1) {\n            player1.transfer(address(this).balance);\n            emit unrolled(player1);\n        }\n        else if (winner==2) {\n            player2.transfer(address(this).balance);\n            emit unrolled(player2);\n        }\n        else {\n            player1.transfer(address(this).balance/2);\n            player2.transfer(address(this).balance);\n            emit unrolled(0);\n        }\n        resetGame();\n    }\n}",
  "sourcePath": "/Users/barthelemyduthoit/Documents/ECOLE/Imperial/467-Principles_of_Distributed_Ledgers/CW/RockPaperCissorsdApp/contracts/rockpapercissors.sol",
  "compiler": {
    "name": "solc",
    "version": "0.4.24+commit.e67f0147.Emscripten.clang"
  },
  "schemaVersion": "3.0.1",
  "updatedAt": "2019-02-08T15:07:31.054Z",
  "devdoc": {
    "methods": {}
  },
  "userdoc": {
    "methods": {}
  }
}